:020000040800F2
:10000000005000207D1E0008511D0008571D0008EB
:100010005D1D0008631D0008691D00080000000048
:100020000000000000000000000000006F1D00083C
:100030007B1D000800000000871D0008931D0008BC
:10004000C51E0008C51E0008C51E0008C51E000804
:10005000C51E0008C51E0008C51E0008C51E0008F4
:10006000C51E0008C51E0008C51E0008C51E0008E4
:10007000C51E0008A11D0008C51E0008C51E0008F9
:10008000C51E0008C51E0008B51D0008C51E0008D5
:10009000C51E0008C51E0008C51E0008C51E0008B4
:1000A000C51E0008C51E0008C51E0008C51E0008A4
:1000B000C91D0008DD1D0008F11D0008C51E00084F
:1000C000C51E0008C51E0008C51E0008C51E000884
:1000D000C51E0008C51E0008C51E0008C51E000874
:1000E000C51E0008C51E0008C51E0008000000004F
:1000F0000000000000000000000000000000000000
:0C01000000000000000000005FF808F1A3
:10010C0010B5054C237833B9044B13B10448AFF345
:10011C0000800123237010BD780000200000000037
:10012C008C54000808B5034B1BB103490348AFF3CB
:10013C00008008BD000000007C0000208C540008EA
:10014C0080F0004002E000BF81F0004142001FBF80
:10015C005FEA410392EA030F7FEA226C7FEA236C89
:10016C006AD04FEA1262D2EB1363C1BFD21841407E
:10017C0048404140B8BF5B42192B88BF704710F014
:10018C00004F40F4000020F07F4018BF404211F0B7
:10019C00004F41F4000121F07F4118BF494292EA1F
:1001AC00030F3FD0A2F1010241FA03FC10EB0C004B
:1001BC00C3F1200301FA03F100F0004302D54942D8
:1001CC0060EB4000B0F5000F13D3B0F1807F06D385
:1001DC0040084FEA310102F10102FE2A51D2B1F17D
:1001EC00004F40EBC25008BF20F0010040EA030072
:1001FC007047490040EB0000013A28BFB0F5000FF2
:10020C00EDD2B0FA80FCACF1080CB2EB0C0200FAA7
:10021C000CF0AABF00EBC25052421843BCBFD040F6
:10022C001843704792F0000F81F4000106BF80F470
:10023C0000000132013BB5E74FEA41037FEA226C33
:10024C0018BF7FEA236C21D092EA030F04D092F0FE
:10025C00000F08BF0846704790EA010F1CBF002032
:10026C00704712F07F4F04D1400028BF40F000408F
:10027C00704712F100723CBF00F50000704700F0AF
:10028C00004343F0FE4040F4000070477FEA2262D6
:10029C0016BF08467FEA23630146420206BF5FEAA7
:1002AC00412390EA010F40F4800070474FF00003A7
:1002BC0004E000BF10F0004348BF40425FEA000C6E
:1002CC0008BF704743F0964301464FF000001CE016
:1002DC0050EA010208BF70474FF000030AE000BF6C
:1002EC0050EA010208BF704711F0004302D54042AA
:1002FC0061EB41015FEA010C02BF8446014600201C
:10030C0043F0B64308BFA3F18053A3F50003BCFA36
:10031C008CF2083AA3EBC25310DB01FA02FC6344E3
:10032C0000FA02FCC2F12002BCF1004F20FA02F2EA
:10033C0043EB020008BF20F00100704702F12002DD
:10034C0001FA02FCC2F1200250EA4C0021FA02F23E
:10035C0043EB020008BF20EADC7070474FF0FF0C43
:10036C001CEAD0521EBF1CEAD15392EA0C0F93EA3E
:10037C000C0F6FD01A4480EA010C400218BF5FEAE0
:10038C0041211ED04FF0006343EA501043EA511153
:10039C00A0FB01310CF00040B1F5000F3EBF49004D
:1003AC0041EAD3715B0040EA010062F17F02FD2A51
:1003BC001DD8B3F1004F40EBC25008BF20F0010034
:1003CC00704790F0000F0CF0004C08BF49024CEA4B
:1003DC00502040EA51207F3AC2BFD2F1FF0340EADD
:1003EC00C250704740F400004FF00003013A5DDC4E
:1003FC0012F1190FDCBF00F000407047C2F100028F
:10040C00410021FA02F1C2F1200200FA02FC5FEA7B
:10041C00310040F1000053EA4C0308BF20EADC70C5
:10042C00704792F0000F00F0004C02BF400010F437
:10043C00000F013AF9D040EA0C0093F0000F01F0E4
:10044C00004C02BF490011F4000F013BF9D041EA06
:10045C000C018FE70CEAD15392EA0C0F18BF93EA08
:10046C000C0F0AD030F0004C18BF31F0004CD8D132
:10047C0080EA010000F00040704790F0000F17BFB9
:10048C0090F0004F084691F0000F91F0004F14D0FF
:10049C0092EA0C0F01D142020FD193EA0C0F03D157
:1004AC004B0218BF084608D180EA010000F000405A
:1004BC0040F0FE4040F40000704740F0FE4040F435
:1004CC00400070474FF0FF0C1CEAD0521EBF1CEAD4
:1004DC00D15392EA0C0F93EA0C0F69D0A2EB0302F2
:1004EC0080EA010C49024FEA402037D04FF080538C
:1004FC0043EA111143EA10130CF000408B4238BF51
:10050C005B0042F17D024FF4000C8B4224BF5B1A5E
:10051C0040EA0C00B3EB510F24BFA3EB510340EAAC
:10052C005C00B3EB910F24BFA3EB910340EA9C005A
:10053C00B3EBD10F24BFA3EBD10340EADC001B01CA
:10054C0018BF5FEA1C1CE0D1FD2A3FF650AF8B426E
:10055C0040EBC25008BF20F0010070470CF0004C7B
:10056C004CEA50207F32C2BFD2F1FF0340EAC250A6
:10057C00704740F400004FF00003013A37E792F067
:10058C00000F00F0004C02BF400010F4000F013AC5
:10059C00F9D040EA0C0093F0000F01F0004C02BFC0
:1005AC00490011F4000F013BF9D041EA0C0195E729
:1005BC000CEAD15392EA0C0F08D142027FF47DAFC2
:1005CC0093EA0C0F7FF470AF084676E793EA0C0FB2
:1005DC0004D14B023FF44CAF08466EE730F0004CB0
:1005EC0018BF31F0004CCAD130F000427FF45CAF40
:1005FC0031F000437FF43CAF5FE700BF42000ED206
:10060C00B2F1FE4F0BD34FF09E03B3EB126209D441
:10061C004FEA002343F0004323FA02F070474FF0F7
:10062C000000704712F1610F01D1420202D14FF06C
:10063C00FF3070474FF00000704700BF90B589B095
:10064C0002AF0446084611461A462346FB80034671
:10065C00BB800B467B8013463B800023FB82002330
:10066C00BB820023FB740023BB740023BB600023FC
:10067C003B820023FB817A88FB88D31ABB60BB6862
:10068C00002B01DA0123FB740023BB603A88BB8882
:10069C00D31ABB60BB68002B01DA0123BB74FB7C53
:1006AC00002B06D17A88FB88D31AFB82FB883B820D
:1006BC0005E0FA887B88D31AFB827B883B82BB7C63
:1006CC00002B06D13A88BB88D31ABB82BB88FB812E
:1006DC0005E0BA883B88D31ABB823B88FB81BC8A75
:1006EC00FA8AF989388A3B8D0093234600F022FD63
:1006FC0000BF1C37BD4690BD90B58DB002AFB96040
:10070C0011461A460346FB730B46BB811346FB800E
:10071C00FB7B1E2B61D997F90F30002B5DDBBB687F
:10072C001B78FB77BB685B78BB77BB689B787B7768
:10073C00BB68DB783B77FB7B203BFA7F02FB03F348
:10074C000433BA681344BB61BB7F9AB27B7F9CB203
:10075C00F988B889BB8F0093234600F0EBFC00238B
:10076C007B6235E000233B622BE03B7F3A6A02FB65
:10077C0003F27B6ADB1003F01F0313440133BA69E5
:10078C0013441B78FB757B6A03F00703012202FA02
:10079C0003F3BB75FA7DBB7D1340DBB2002B0DD090
:1007AC003B6A9AB2BB89134498B27B6A9AB2FB88B3
:1007BC0013449BB23A8F194600F056FC3B6A013346
:1007CC003B62BB7F3A6A9A42CFDB7B6A01337B6226
:1007DC007B7F7A6A9A42C5DB00E000BF2C37BD46AE
:1007EC0090BD80B58AB002AFF860B96011461A4668
:1007FC000B46FB801346BB80BB681B78FB77BB6842
:10080C005B78BB772DE0FB681878B988FA88BB8DCC
:10081C0001933B8D00930B46B968FFF76DFFFB68A6
:10082C001B78203BFA7F02FB03F30433BA681344B2
:10083C00BB61BB691B78FB75FB7D9A1CBB7F9A4225
:10084C0007DAFB7D9AB2FB8813449BB20233FB8020
:10085C0004E0BB7F9AB2FB881344FB80FB68013336
:10086C00FB60FB681B78002BCDD100BF00BF20378D
:10087C00BD4680BD90B589B000AF04460846114610
:10088C001A462346FB800346BB800B467B801346EF
:10089C003B807A88FB88D31A9BB2FB823A88BB8850
:1008AC00D31A9BB2BB82B7F91630002B0BD1B7F918
:1008BC001430002B00F0AA80F888B988BA8A3B8ED5
:1008CC0000F0D8FCA5E0B7F91430002B0BD1B7F928
:1008DC001630002B00F09C80F888B988FA8A3B8E81
:1008EC0000F084FC95E0B7F91430002BB8BF5B42E4
:1008FC009AB2B7F91630002BB8BF5B429BB29A4242
:10090C008CBF01230023DBB23B613B69002B0BD076
:10091C00FB88FB81BB88FB80FB89BB807B88BB8110
:10092C003B887B80BB893B80B7F90620B7F9023046
:10093C009A420BDDFB887B817B88FB807B897B80EB
:10094C00BB883B813B88BB803B893B807A88FB889A
:10095C00D31A9BB2FB82B7F90020B7F90430D31A33
:10096C00002BB8BF5B42BB82B7F916305B107B83A0
:10097C00B7F90420B7F900309A4202DA01233B831D
:10098C003DE04FF6FF733B8339E03B69002B04D00D
:10099C00BB88FB83FB88BB8303E0FB88FB83BB88A2
:1009AC00BB83B7F91E30002B12DBB7F91E30B3F541
:1009BC00A07F0DDCB7F91C30002B09DBB7F91C301C
:1009CC00F02B05DCFB8BB98B3A8E184600F04CFBF8
:1009DC007A8BBB8AD31A9BB27B83B7F91A30002B64
:1009EC0009DABA883B8B13449BB2BB807A8BFB8AA7
:1009FC0013449BB27B83FB8801339BB2FB80B7F91A
:100A0C000620B7F902309A42BFDD02E000BF00E0D9
:100A1C0000BF2437BD4690BD80B582B000AF786072
:100A2C007B68064A934205D101224FF48061044849
:100A3C0002F04CFB00BF0837BD4680BDF40100201E
:100A4C00000C014080B582B000AF0346FB7100BFC3
:100A5C00084B1B689B6803F00203022BF8D1FB1DAB
:100A6C0001221946034803F0D9F900BF0837BD46E7
:100A7C0080BD00BFF401002080B582B000AF78606B
:100A8C000B467B8000BF084B1B689B6803F002037E
:100A9C00022BF8D17B881A467968034803F0BEF91B
:100AAC0000BF0837BD4680BDF401002080B582B080
:100ABC0000AF0346FB7100220121084802F006FB3F
:100ACC0000224FF48061054802F000FBFB791846C8
:100ADC00FFF7B8FF00BF0837BD4680BD000C0140D2
:100AEC0080B582B000AF0346FB710122012108489A
:100AFC0002F0ECFA00224FF48061054802F0E6FAAD
:100B0C00FB791846FFF79EFF00BF0837BD4680BD36
:100B1C00000C014080B582B000AF78600B467B8042
:100B2C0001220121084802F0D1FA00224FF4806121
:100B3C00054802F0CBFA7B8819467868FFF79CFFD2
:100B4C0000BF0837BD4680BD000C014090B585B094
:100B5C0000AF0446084611461A462346FB8003465E
:100B6C00BB800B467B8013463B80FB881B0A9BB2E9
:100B7C00DBB23B73FB88DBB27B737B881B0A9BB2BB
:100B8C00DBB2BB737B88DBB2FB732A20FFF78EFFD3
:100B9C0007F10C0304211846FFF7BCFFBB881B0AA6
:100BAC009BB2DBB23B73BB88DBB27B733B881B0A0B
:100BBC009BB2DBB2BB733B88DBB2FB732B20FFF722
:100BCC0075FF07F10C0304211846FFF7A3FF2C2037
:100BDC00FFF76CFF00BF1437BD4690BD80B500AF6A
:100BEC00002202210D4802F071FA0A2001F0C8F926
:100BFC0000224FF48061094802F068FA0A2001F0E3
:100C0C00BFF901220221054802F060FA01224FF4DB
:100C1C008061024802F05AFA00BF80BD000C01400E
:100C2C0080B500AF01220221024802F04FFA00BF4A
:100C3C0080BD00BF000C014080B500AFFFF7F0FF96
:100C4C00FFF7CCFF0120FFF731FF0A2001F098F9E4
:100C5C00CB20FFF72BFF3920FFF742FF2C20FFF7AB
:100C6C003FFF0020FFF73CFF3420FFF739FF022045
:100C7C00FFF736FFCF20FFF719FF0020FFF730FFFB
:100C8C00C120FFF72DFF3020FFF72AFFE820FFF7E8
:100C9C000DFF8520FFF724FF0020FFF721FF7820B0
:100CAC00FFF71EFFEA20FFF701FF0020FFF718FFF8
:100CBC000020FFF715FFED20FFF7F8FE6420FFF78B
:100CCC000FFF0320FFF70CFF1220FFF709FF812015
:100CDC00FFF706FFF720FFF7E9FE2020FFF700FFE4
:100CEC00C020FFF7E3FE2320FFF7FAFEC120FFF739
:100CFC00DDFE1020FFF7F4FEC520FFF7D7FE3E20E7
:100D0C00FFF7EEFE2820FFF7EBFEC720FFF7CEFE25
:100D1C008620FFF7E5FE3620FFF7C8FE4820FFF7D8
:100D2C00DFFE3A20FFF7C2FE5520FFF7D9FEB120B7
:100D3C00FFF7BCFE0020FFF7D3FE1820FFF7D0FE14
:100D4C00B620FFF7B3FE0820FFF7CAFE8220FFF79C
:100D5C00C7FE2720FFF7C4FEF220FFF7A7FE0020F6
:100D6C00FFF7BEFE2620FFF7A1FE0120FFF7B8FE1D
:100D7C00E020FFF79BFE0F20FFF7B2FE3120FFF7BC
:100D8C00AFFE2B20FFF7ACFE0C20FFF7A9FE0E20C8
:100D9C00FFF7A6FE0820FFF7A3FE4E20FFF7A0FEEC
:100DAC00F120FFF79DFE3720FFF79AFE0720FFF793
:100DBC0097FE1020FFF794FE0320FFF791FE0E2004
:100DCC00FFF78EFE0920FFF78BFE0020FFF788FE51
:100DDC00E120FFF76BFE0020FFF782FE0E20FFF7ED
:100DEC007FFE1420FFF77CFE0320FFF779FE112015
:100DFC00FFF776FE0720FFF773FE3120FFF770FE3A
:100E0C00C120FFF76DFE4820FFF76AFE0820FFF7B0
:100E1C0067FE0F20FFF764FE0C20FFF761FE312008
:100E2C00FFF75EFE3620FFF75BFE0F20FFF758FE44
:100E3C001120FFF73BFE642001F0A2F82920FFF7F8
:100E4C0035FE002000F002F800BF80BD80B582B0F6
:100E5C0000AF0346FB713620FFF728FE012001F09E
:100E6C008FF8FB79032B37D801A252F823F000BF7F
:100E7C008D0E0008A30E0008B90E0008CF0E000856
:100E8C004820FFF72DFE174BF0221A80164B4FF41B
:100E9C00A0721A8021E02820FFF722FE114B4FF49C
:100EAC00A0721A80104BF0221A8016E08820FFF7EF
:100EBC0017FE0C4BF0221A800B4B4FF4A0721A80C9
:100ECC000BE0E820FFF70CFE064B4FF4A0721A80E3
:100EDC00054BF0221A8000E000BF00BF0837BD466A
:100EEC0080BD00BF0200002000000020B0B58CB017
:100EFC0000AF03463960FB806B461D4600237B62C6
:100F0C003B685B00B3F5FA7F02D23B687B6202E080
:100F1C004FF4FA737B62012201213E4802F0D6F8AD
:100F2C0000224FF480613B4802F0D0F8FB881B0A8A
:100F3C009BB287F823307C6A2346013BFB61204639
:100F4C004FF000014FF000024FF00003CB0043EADA
:100F5C005073C20020464FF000014FF000024FF0DA
:100F6C000003CB0043EA5073C200E31DDB08DB0037
:100F7C00ADEB030D6B460033BB610023BB620EE08F
:100F8C00BA69BB6A134497F823201A70BB6A013301
:100F9C00FA88D1B2BA69D154BB6A0233BB62BA6A5D
:100FAC007B6A9A42ECD33B685B007B617A697B6A13
:100FBC00B2FBF3F33B617B697A6AB3FBF2F2796AB9
:100FCC0001FB02F29B1AFB603B69002B10D0002343
:100FDC00FB6209E0B9697B6A9AB20A230E4802F0F7
:100FEC00E1FDFB6A0133FB62FA6A3B699A42F1D379
:100FFC00B969FB689AB20A23074802F0D3FD0122B3
:10100C004FF48061034802F061F8AD4600BF303701
:10101C00BD46B0BD000C0140F401002080B582B08B
:10102C0000AF0346FB800E4B1B889AB20D4B1B88FE
:10103C009BB200210020FFF789FD094B1B889BB256
:10104C001A46084B1B889BB203FB02F31A46FB881B
:10105C0011461846FFF74AFF00BF0837BD4680BD52
:10106C00020000200000002080B586B000AF0346CF
:10107C00FB800B46BB8013467B802C4B1B889BB2A2
:10108C00FA889A424DD22A4B1B889BB2BA889A4254
:10109C0047D2FB881B0A9BB2DBB23B75FB88DBB2E9
:1010AC007B75FB8801331B12DBB2BB75FB88DBB293
:1010BC000133DBB2FB75BB881B0A9BB2DBB23B7402
:1010CC00BB88DBB27B74BB8801331B12DBB2BB74F5
:1010DC00BB88DBB20133DBB2FB747B881B0A9BB28F
:1010EC00DBB23B737B88DBB27B732A20FFF7DEFC21
:1010FC0007F1140304211846FFF70CFD2B20FFF712
:10110C00D5FC07F1100304211846FFF703FD2C2032
:10111C00FFF7CCFC07F10C0302211846FFF7FAFC91
:10112C0000E000BF1837BD4680BD00BF02000020A4
:10113C000000002090B583B000AF0446084611466D
:10114C001A462346FB800346BB800B467B80134626
:10115C003B80244B1B889BB2FA889A423DD2224B8F
:10116C001B889BB2BA889A4237D2FA887B88134480
:10117C001C4A128892B2934205DD1A4B1B889AB214
:10118C00FB88D31A7B80BA883B881344164A128892
:10119C0092B2934205DD144B1B889AB2BB88D31ACA
:1011AC003B80FA887B8813449BB2013B9CB2BA8883
:1011BC003B8813449BB2013B9BB2B988F88822460A
:1011CC00FFF7C4FC3B887A8802FB03F31A463B8B7F
:1011DC0011461846FFF78AFE00E000BF0C37BD46EB
:1011EC0090BD00BF020000200000002090B583B02D
:1011FC0000AF0446084611461A462346FB800346B8
:10120C00BB800B467B8013463B80184B1B889BB2E4
:10121C00FA889A4225D2164B1B889BB2BA889A42FE
:10122C001FD2FA887B881344104A128892B29342D8
:10123C0005DD0E4B1B889AB2FB88D31A7B80FA888B
:10124C007B8813449BB2013B9AB2BB88B988F8885F
:10125C00FFF77CFC7A883B8811461846FFF746FE60
:10126C0000E000BF0C37BD4690BD00BF020000205F
:10127C000000002090B583B000AF0446084611462C
:10128C001A462346FB800346BB800B467B801346E5
:10129C003B80184B1B889BB2FA889A4225D2164B7E
:1012AC001B889BB2BA889A421FD2BA887B88134497
:1012BC00114A128892B2934205DD0F4B1B889AB2E9
:1012CC00BB88D31A7B80BA887B8813449BB2013BC2
:1012DC009BB2FA88B988F888FFF738FC7A883B8883
:1012EC0011461846FFF702FE00E000BF0C37BD4662
:1012FC0090BD00BF020000200000002090B583B01C
:10130C0002AF00F0DBFD00F0BBF800F0B9FA00F022
:10131C0099FA00F04FF900F00FF900F0CDF900F058
:10132C0067FA00F07DF900F015FAFFF785FC4648E6
:10133C0002F0B4FF454800F01FFF454802F0AEFF35
:10134C00444802F0ABFF0020FFF768FE0320FFF7D4
:10135C007DFD002301934FF6FF73009305230A22B2
:10136C003D493E48FFF73DFA69E03D4B1A683D4B5D
:10137C00A3FB0213D21A520813441B09C3F1F00346
:10138C00394A1360384B1B683B2B08D8374B1B680A
:10139C00002B04D1354B01221A6000F011FB324BAB
:1013AC001B683C2B06D9314B1B68012B02D12F4BF0
:1013BC0000221A602E4B1B6818B22E4B1B6819B2F8
:1013CC002B4B1B689BB201339BB21AB2264B1B688A
:1013DC001BB24FF6FF740094FFF74CFA244B1B68BA
:1013EC000133234A1360204B1B68224A1360204BA5
:1013FC001B68B3F5A07F1FD31D4B00221A6000237E
:10140C000093F0234FF4A07219210020FFF716F976
:10141C000023009319234FF4A07200215F20FFF7E3
:10142C000DF9002301934FF6FF73009305235F2200
:10143C0009491148FFF7D5F9104B00221A600F4BE0
:10144C001B68002B91D1FAE71C01002068010020D9
:10145C004C020020A0000020C8540008A45400082E
:10146C00E0010020CB6B28AFE8010020EC0100204C
:10147C00F001002004000020E8000020D802002029
:10148C0080B594B000AF07F128032822002118463C
:10149C0003F0B4FB07F1140300221A605A609A603F
:1014AC00DA601A613B1D00221A605A609A60DA6099
:1014BC000123BB624FF48033FB6200233B630123A7
:1014CC00BB6302237B644FF48033BB644FF4E013A3
:1014DC00FB6407F12803184601F010FE0346002BAD
:1014EC0001D000F0A3FA0F237B610223BB61002320
:1014FC00FB614FF480633B6200237B6207F11403B2
:10150C000221184602F07AF80346002B01D000F0B5
:10151C008DFA02237B604FF40043FB603B1D1846A1
:10152C0002F006FA0346002B01D000F07FFA00BF50
:10153C005037BD4680BD000080B584B000AF3B1D68
:10154C0000221A605A609A60184B194A1A60174B9D
:10155C0000229A60154B00221A73144B00221A7544
:10156C00124B4FF40022DA61104B00225A600F4BE1
:10157C0001221A610D4800F027FD0346002B01D013
:10158C0000F054FA01237B600123BB600023FB6055
:10159C003B1D1946054800F07DFF0346002B01D08A
:1015AC0000F044FA00BF1037BD4680BD6801002032
:1015BC000024014080B500AF174B184A1A60164B37
:1015CC004FF482725A60144B00229A60124B002224
:1015DC00DA60114B00221A610F4B00225A610E4B3C
:1015EC004FF400729A610C4B0822DA610A4B00220C
:1015FC001A62094B00225A62074B00229A62064B70
:10160C000A22DA62044802F049FA0346002B01D0A0
:10161C0000F00CFA00BF80BDF40100200030014046
:10162C0080B586B000AF07F1080300221A605A603B
:10163C009A60DA603B4600221A605A601D4B4FF0EC
:10164C0080421A601B4B4FF4E1525A60194B002236
:10165C009A60184B1E22DA60164B00221A61154B49
:10166C0000229A61134802F0C9FD0346002B01D0F9
:10167C0000F0DCF94FF48053BB6007F10803194606
:10168C000C4802F065FF0346002B01D000F0CEF9A8
:10169C0000233B6000237B603B461946054803F062
:1016AC0037F90346002B01D000F0C0F900BF183702
:1016BC00BD4680BD4C02002080B586B000AF07F15E
:1016CC00080300221A605A609A60DA603B460022D6
:1016DC001A605A601D4B1E4A1A601C4B4FF4E152A3
:1016EC005A601A4B00229A60184B1E22DA60174B74
:1016FC0000221A61154B80229A61144802F07EFD7B
:10170C000346002B01D000F091F94FF48053BB60DD
:10171C0007F1080319460D4802F01AFF0346002B87
:10172C0001D000F083F920233B6000237B603B4613
:10173C001946064803F0ECF80346002B01D000F0E4
:10174C0075F900BF1837BD4680BD00BF1C010020D5
:10175C000004004080B586B000AF07F108030022FA
:10176C001A605A609A60DA603B4600221A605A602E
:10177C001D4B1E4A1A601C4B4FF4E1525A601A4B17
:10178C0000229A60184B6422DA60174B00221A610F
:10179C00154B00229A61144802F030FD0346002BD1
:1017AC0001D000F043F94FF48053BB6007F10803FC
:1017BC0019460D4802F0CCFE0346002B01D000F078
:1017CC0035F900233B6000237B603B4619460648F5
:1017DC0003F09EF80346002B01D000F027F900BF60
:1017EC001837BD4680BD00BFA00000200008004097
:1017FC0080B500AF114B124A1A60104B4FF41652C1
:10180C005A600E4B00229A600C4B0022DA600B4B94
:10181C0000221A61094B0C225A61084B00229A6172
:10182C00064B0022DA61054803F0E2F80346002B70
:10183C0001D000F0FBF800BF80BD00BF9801002074
:10184C000038014080B582B000AF0C4B5B690B4A8D
:10185C0043F001035361094B5B6903F001037B60A7
:10186C007B68002200210D2001F087F80D2001F08B
:10187C00A0F800BF0837BD4680BD00BF0010024075
:10188C0080B588B000AF07F1100300221A605A60CF
:10189C009A60DA60254B9B69244A43F020039361DC
:1018AC00224B9B6903F02003FB60FB681F4B9B6979
:1018BC001E4A43F0040393611C4B9B6903F0040321
:1018CC00BB60BB68194B9B69184A43F008039361D2
:1018DC00164B9B6903F008037B607B68002241F286
:1018EC000341134801F0F2FB40F203433B61012337
:1018FC007B610023BB610223FB6107F110031946D6
:10190C000B4801F05FFA4FF480533B6101237B617C
:10191C000023BB610323FB6107F110031946044844
:10192C0001F050FA00BF2037BD4680BD00100240C8
:10193C00000C014080B582B000AF7860786800F090
:10194C00D1FC0346024A136000BF0837BD4680BD78
:10195C00E001002080B582B000AF78607B68114A4E
:10196C00934203D1104B01221A6017E07B680F4A97
:10197C00934212D10E4B1B6801330D4A13600C4B72
:10198C001B68B3F5FA7F09D90A490B4803F03EF9F5
:10199C0003461A46094B1A6000E000BF0837BD46E3
:1019AC0080BD00BF1C010020D8020020A000002038
:1019BC00DC010020B0540008E80000206401002085
:1019CC0080B582B000AF144B1B681846FEF76EFC56
:1019DC00034612491846FEF775FD034619464FF0AB
:1019EC007E50FEF76FFD03467B607868FEF706FEBF
:1019FC0003467B807B881A4609490A4803F006F99E
:101A0C0003461A46084B1A60034B00221A6000BFAB
:101A1C000837BD4680BD00BFDC0100200080BB45FF
:101A2C00B4540008E80000206401002080B400AF2A
:101A3C0072B600BFFEE7000080B485B000AF154B56
:101A4C009B69144A43F001039361124B9B6903F0A9
:101A5C000103BB60BB680F4BDB690E4A43F080533C
:101A6C00D3610C4BDB6903F080537B607B680A4BC2
:101A7C005B68FB60FB6823F0E063FB60FB6843F092
:101A8C008063FB60044AFB68536000BF1437BD469B
:101A9C0080BC7047001002400000014080B588B047
:101AAC0000AF786007F1100300221A605A609A6048
:101ABC00DA607B681B68184A934229D1174B9B69E3
:101ACC00164A43F400739361144B9B6903F400733F
:101ADC00FB60FB68114B9B69104A43F00403936154
:101AEC000E4B9B6903F00403BB60BB6802233B6194
:101AFC0003237B6107F110031946094801F062F9D1
:101B0C0000220021122000F038FF122000F051FFBB
:101B1C0000BF2037BD4680BD0024014000100240AC
:101B2C000008014080B588B000AF786007F1100361
:101B3C0000221A605A609A60DA607B681B68284A37
:101B4C00934249D1274B9B69264A43F480539361B6
:101B5C00244B9B6903F48053FB60FB68214B9B690E
:101B6C00204A43F0040393611E4B9B6903F004036A
:101B7C00BB60BB68A0233B6102237B610323FB6139
:101B8C0007F110031946184801F01CF9174B184AB5
:101B9C001A60164B10225A60144B00229A60134B99
:101BAC008022DA60114B00221A61104B00225A611C
:101BBC000E4B00229A610D4B0022DA610B4800F0AB
:101BCC0013FF0346002B01D0FFF730FF7B68074A59
:101BDC009A64064A7B68536200BF2037BD4680BDBD
:101BEC000030014000100240000801409402002027
:101BFC003000024080B586B000AF78607B681B680F
:101C0C00B3F1804F14D1264BDB69254A43F0010315
:101C1C00D361234BDB6903F001037B617B690022F9
:101C2C0000211C2000F0A9FE1C2000F0C2FE32E0B6
:101C3C007B681B681B4A934214D1194BDB69184A09
:101C4C0043F00203D361164BDB6903F002033B61E3
:101C5C003B69002200211D2000F08FFE1D2000F0AA
:101C6C00A8FE18E07B681B680F4A934213D10C4BFB
:101C7C00DB690B4A43F00403D361094BDB6903F0C6
:101C8C000403FB60FB68002200211E2000F075FE9F
:101C9C001E2000F08EFE00BF1837BD4680BD00BF71
:101CAC0000100240000400400008004080B588B0DD
:101CBC0000AF786007F1100300221A605A609A6036
:101CCC00DA607B681B681C4A934231D11B4B9B69C1
:101CDC001A4A43F480439361184B9B6903F4804385
:101CEC00FB60FB68154B9B69144A43F0040393613A
:101CFC00124B9B6903F00403BB60BB684FF4007389
:101D0C003B6102237B610323FB6107F1100319463E
:101D1C000B4801F057F84FF480633B6100237B6163
:101D2C000023BB6107F110031946054801F04AF87E
:101D3C0000BF2037BD4680BD003801400010024076
:101D4C000008014080B400AFFEE780B400AFFEE7AE
:101D5C0080B400AFFEE780B400AFFEE780B400AF04
:101D6C00FEE780B400AF00BFBD4680BC704780B4B6
:101D7C0000AF00BFBD4680BC704780B400AF00BF51
:101D8C00BD4680BC704780B500AF00F0DDF800BFE9
:101D9C0080BD000080B500AF024800F0DFFE00BF40
:101DAC0080BD00BF9402002080B500AF024800F057
:101DBC00A5FA00BF80BD00BF6801002080B500AF50
:101DCC00024802F0BDFA00BF80BD00BF4C020020EB
:101DDC0080B500AF024802F0B3FA00BF80BD00BF6F
:101DEC001C01002080B500AF024802F0A9FA00BF28
:101DFC0080BD00BFA000002080B586B000AF786029
:101E0C00144A154BD31A7B617B693B61134B1B68DE
:101E1C00002B02D1114B124A1A60104B1A687B68C6
:101E2C0013443A699A4207D202F0BEFE03460C22D2
:101E3C001A604FF0FF3309E0084B1B68FB60074B3F
:101E4C001A687B681344054A1360FB6818461837F8
:101E5C00BD4680BD0050002000040000940000200E
:101E6C00F002002080B400AF00BFBD4680BC7047BC
:101E7C000C480D490D4A002302E0D458C4500433D9
:101E8C00C4188C42F9D30A4A0A4C002301E01360AF
:101E9C000432A242FBD3FFF7E5FF02F08BFEFFF703
:101EAC002DFA70470000002078000020805E0008AA
:101EBC0078000020F0020020FEE7000080B500AFA3
:101ECC00084B1B68074A43F010031360032000F013
:101EDC0049FD0F2000F008F8FFF7AEFD002318466F
:101EEC0080BD00BF0020024080B582B000AF78609A
:101EFC00124B1A68124B1B7819464FF47A73B3FBCA
:101F0C00F1F3B2FBF3F3184600F061FD0346002B2E
:101F1C0001D001230EE07B680F2B0AD800227968D0
:101F2C004FF0FF3000F029FD064A7B681360002358
:101F3C0000E0012318460837BD4680BD080000208C
:101F4C00100000200C00002080B400AF054B1B7863
:101F5C001A46054B1B681344034A136000BFBD4669
:101F6C0080BC704710000020DC02002080B400AF61
:101F7C00024B1B681846BD4680BC7047DC02002033
:101F8C0080B584B000AF7860FFF7F0FFB8607B6875
:101F9C00FB60FB68B3F1FF3F05D00A4B1B781A4678
:101FAC00FB681344FB6000BFFFF7E0FF0246BB6811
:101FBC00D31AFA689A42F7D800BF00BF1037BD4653
:101FCC0080BD00BF1000002080B586B000AF7860E7
:101FDC000023FB7500233B610023BB600023FB60E7
:101FEC007B68002B01D10123BEE07B689B68002B32
:101FFC007B689B6A002B09D17B680022DA627B68C4
:10200C00002283F824207868FFF748FD786800F0F8
:10201C0093FB0346FB757B689B6A03F01003002B54
:10202C0040F09980FB7D002B40F095807B689B6A8B
:10203C0023F4885323F0020343F002027B689A6274
:10204C007B685A687B68DB691A437B681B7B5B0087
:10205C001343BA681343BB607B689B68B3F5807FFE
:10206C0003D07B689B68012B02D14FF4807300E096
:10207C0000233A6913433B617B681B7D012B19D10B
:10208C007B681B7B002B09D17B689B69013B5A0346
:10209C003B69134343F400633B610BE07B689B6A31
:1020AC0043F020027B689A627B68DB6A43F0010292
:1020BC007B68DA627B681B685B6823F469417B6828
:1020CC001B683A690A435A607B681B689A68284BFC
:1020DC0013407A681268B9680B4393607B689B68FD
:1020EC00B3F5807F03D07B689B68012B04D17B68A0
:1020FC001B69013B1B05FB607B681B68DB6A23F4D7
:10210C0070017B681B68FA680A43DA627B681B689B
:10211C009A68184B1340BA689A420BD17B6800221C
:10212C00DA627B689B6A23F0030343F001027B684D
:10213C009A6218E07B689B6A23F0120343F010024A
:10214C007B689A627B68DB6A43F001027B68DA6227
:10215C000123FB7507E07B689B6A43F010027B68E8
:10216C009A620123FB75FB7D18461837BD4680BD6E
:10217C00FDF7E1FFFE0E1FFF80B584B000AF786065
:10218C000023FB737B6893F82430012B01D10223CD
:10219C00A0E07B68012283F82420786800F072FAB2
:1021AC000346FB73FB7B002B40F08F807B689B6AA4
:1021BC0023F4706323F0010343F480727B689A620A
:1021CC007B681B68454A934205D1454B5B6803F419
:1021DC007023002B15D17B689B6A23F480127B68DB
:1021EC009A627B681B685B6803F48063002B26D0C3
:1021FC007B689B6A23F4405343F480527B689A6259
:10220C001DE07B689B6A43F480127B689A627B6852
:10221C001B68334A934204D07B681B682F4A934255
:10222C000DD12F4B5B6803F48063002B07D07B68C8
:10223C009B6A23F4405343F480527B689A627B6818
:10224C009B6A03F48053002B06D07B68DB6A23F077
:10225C0006027B68DA6202E07B680022DA627B6845
:10226C00002283F824207B681B686FF002021A603E
:10227C007B681B685A687B681B6842F020025A60B6
:10228C007B681B689B6803F46023B3F5602F13D144
:10229C007B681B68114A934205D1114B5B6803F4B0
:1022AC007023002B08D17B681B689A687B681B68BD
:1022BC0042F4A0029A600CE07B681B689A687B6809
:1022CC001B6842F480129A6003E07B68002283F85A
:1022DC002420FB7B18461037BD4680BD00280140EA
:1022EC000024014080B483B000AF78607B681B6829
:1022FC00DB6C18460C37BD4680BC704780B582B08D
:10230C0000AF78607B681B685B6803F02003202BB0
:10231C0040D17B681B681B6803F00203022B39D188
:10232C007B689B6A03F01003002B05D17B689B6ACA
:10233C0043F400727B689A627B681B689B6803F4A9
:10234C006023B3F5602F1DD17B681B7B002B19D14B
:10235C007B681B685A687B681B6822F020025A60F5
:10236C007B689B6A23F480727B689A627B689B6AA9
:10237C0003F48053002B05D17B689B6A43F0010268
:10238C007B689A627868FFF7D5FA7B681B686FF0F8
:10239C0012021A607B681B685B6803F08003802B59
:1023AC004FD17B681B681B6803F00403042B48D1D6
:1023BC007B689B6A03F01003002B05D17B689B6A3A
:1023CC0043F400527B689A627B681B689B6803F439
:1023DC00E043B3F5E04F12D07B681B685B6803F4F5
:1023EC008063002B25D17B681B689B6803F46023FA
:1023FC00B3F5602F1DD17B681B7B002B19D17B683B
:10240C001B685A687B681B6822F080025A607B68E4
:10241C009B6A23F480527B689A627B689B6A03F404
:10242C008073002B05D17B689B6A43F001027B68AB
:10243C009A62786800F0C1F97B681B686FF00C0237
:10244C001A607B681B685B6803F04003402B14D157
:10245C007B681B681B6803F00103012B0DD17B68A3
:10246C009B6A43F480327B689A62786800F009F8C2
:10247C007B681B686FF001021A6000BF0837BD460D
:10248C0080BD80B483B000AF786000BF0C37BD4610
:10249C0080BC704780B485B000AF78603960002391
:1024AC00FB730023BB607B6893F82430012B01D1B4
:1024BC000223DCE07B68012283F824203B685B6804
:1024CC00062B1CD87B681B68596B3B685A681346F3
:1024DC009B001344053B1F2202FA03F3DB43194014
:1024EC003B6818683B685A6813469B001344053BCD
:1024FC0000FA03F27B681B680A435A633CE03B68B2
:10250C005B680C2B1CD87B681B68196B3B685A6882
:10251C0013469B001344233B1F2202FA03F3DB43B5
:10252C0019403B6818683B685A6813469B00134473
:10253C00233B00FA03F27B681B680A431A631BE017
:10254C007B681B68D96A3B685A6813469B00134426
:10255C00413B1F2202FA03F3DB4319403B68186826
:10256C003B685A6813469B001344413B00FA03F244
:10257C007B681B680A43DA623B681B68092B1CD911
:10258C007B681B68D9683B681A6813465B00134468
:10259C001E3B072202FA03F3DB4319403B689868A1
:1025AC003B681A6813465B0013441E3B00FA03F2A7
:1025BC007B681B680A43DA6019E07B681B68196941
:1025CC003B681A6813465B001344072202FA03F3B4
:1025DC00DB4319403B6898683B681A6813465B00FC
:1025EC00134400FA03F27B681B680A431A613B68C8
:1025FC001B68102B03D03B681B68112B32D17B68F6
:10260C001B681D4A934225D17B681B689B6803F4A9
:10261C000003002B26D17B681B689A687B681B68BB
:10262C0042F400029A603B681B68102B1AD1134BC2
:10263C001B68134AA2FB03239A0C13469B001344FA
:10264C005B00BB6002E0BB68013BBB60BB68002B5E
:10265C00F9D107E07B689B6A43F020027B689A62A1
:10266C000123FB737B68002283F82420FB7B184634
:10267C001437BD4680BC7047002401400800002080
:10268C0083DE1B4380B584B000AF78600023FB6011
:10269C000023BB607B681B689B6803F00103012B64
:1026AC0040D07B681B689A687B681B6842F001020B
:1026BC009A601F4B1B681F4AA2FB03239B0CBB6039
:1026CC0002E0BB68013BBB60BB68002BF9D1FFF794
:1026DC004DFCF8601FE0FFF749FC0246FB68D31A7B
:1026EC00022B18D97B681B689B6803F00103012B34
:1026FC0011D07B689B6A43F010027B689A627B68FE
:10270C00DB6A43F001027B68DA627B68002283F8A3
:10271C002420012307E07B681B689B6803F00103FE
:10272C00012BD8D1002318461037BD4680BD00BF01
:10273C000800002083DE1B4380B584B000AF7860B6
:10274C000023FB607B681B689B6803F00103012B73
:10275C002ED17B681B689A687B681B6822F001028B
:10276C009A60FFF703FCF8601BE0FFF7FFFB0246E3
:10277C00FB68D31A022B14D97B681B689B6803F087
:10278C000103012B0DD17B689B6A43F010027B681F
:10279C009A627B68DB6A43F001027B68DA62012390
:1027AC0007E07B681B689B6803F00103012BDCD0FE
:1027BC00002318461037BD4680BD80B483B000AFEF
:1027CC00786000BF0C37BD4680BC704780B485B0C4
:1027DC0000AF78607B6803F00703FB600C4BDB6891
:1027EC00BB60BA684FF6FF031340BB60FB681A026C
:1027FC00BB68134343F0BF6343F40033BB60044A2C
:10280C00BB68D36000BF1437BD4680BC704700BFA7
:10281C0000ED00E080B400AF044BDB681B0A03F052
:10282C0007031846BD4680BC704700BF00ED00E0B2
:10283C0080B483B000AF0346FB7197F90730002BCF
:10284C000BDBFB7903F01F02064997F907305B0994
:10285C00012000FA02F241F8232000BF0C37BD46DC
:10286C0080BC704700E100E080B483B000AF034649
:10287C003960FB7197F90730002B0ADB3B68DAB241
:10288C000C4997F907301201D2B20B4483F800239C
:10289C000AE03B68DAB20849FB7903F00F03043B0A
:1028AC001201D2B20B441A7600BF0C37BD4680BC65
:1028BC00704700BF00E100E000ED00E080B489B09B
:1028CC0000AFF860B9607A60FB6803F00703FB6146
:1028DC00FB69C3F10703042B28BF0423BB61FB690D
:1028EC000433062B02D9FB69033B00E000237B6118
:1028FC004FF0FF32BB6902FA03F3DA43BB681A40AC
:10290C007B699A404FF0FF317B6901FA03F3D9439D
:10291C007B680B40134318462437BD4680BC704778
:10292C0080B582B000AF78607B68013BB3F1807FEB
:10293C0001D301230FE00A4A7B68013B53600F214E
:10294C004FF0FF30FFF790FF054B00229A60044BCD
:10295C0007221A60002318460837BD4680BD00BF09
:10296C0010E000E080B582B000AF78607868FFF7C7
:10297C002DFF00BF0837BD4680BD80B586B000AFC7
:10298C000346B9607A60FB7300237B61FFF742FF5B
:10299C0078617A68B9687869FFF790FF024697F911
:1029AC000F3011461846FFF75FFF00BF1837BD46C2
:1029BC0080BD80B582B000AF0346FB7197F907303C
:1029CC001846FFF735FF00BF0837BD4680BD80B500
:1029DC0082B000AF78607868FFF7A2FF0346184614
:1029EC000837BD4680BD000080B485B000AF78606C
:1029FC000023FB607B68002B01D1012343E07B6843
:102A0C001B681A46224B1344224AA2FB03231B09C0
:102A1C009A007B681A647B681F4ADA637B6802221F
:102A2C0083F821207B681B681B68FB60FB6823F420
:102A3C007F5323F03003FB607B685A687B689B688C
:102A4C001A437B68DB681A437B681B691A437B68F3
:102A5C005B691A437B689B691A437B68DB69134388
:102A6C00FA681343FB607B681B68FA681A607B6822
:102A7C0000229A637B68012283F821207B68002264
:102A8C0083F82020002318461437BD4680BC7047BD
:102A9C00F8FFFDBFCDCCCCCC0000024080B586B099
:102AAC0000AFF860B9607A603B600023FB75FB688F
:102ABC0093F82030012B01D102234AE0FB6801225C
:102ACC0083F82020FB6893F82130012B3AD1FB6866
:102ADC00022283F82120FB6800229A63FB681B68A2
:102AEC001A68FB681B6822F001021A603B687A685E
:102AFC00B968F86800F038F9FB68DB6A002B08D07D
:102B0C00FB681B681A68FB681B6842F00E021A60AF
:102B1C000FE0FB681B681A68FB681B6822F0040254
:102B2C001A60FB681B681A68FB681B6842F00A0293
:102B3C001A60FB681B681A68FB681B6842F001028C
:102B4C001A6005E0FB68002283F820200223FB7545
:102B5C00FB7D18461837BD4680BD000080B584B09B
:102B6C0000AF78607B68DB6B1B68FB607B681B6865
:102B7C001B68BB607B681B6C04229A40FB6813408B
:102B8C00002B4FD0BB6803F00403002B4AD07B68AA
:102B9C001B681B6803F02003002B07D17B681B68A4
:102BAC001A687B681B6822F004021A607B681B6839
:102BBC00664A934229D07B681B68654A934222D0AF
:102BCC007B681B68634A93421AD07B681B68624A15
:102BDC00934212D07B681B68604A93420AD07B6890
:102BEC001B685F4A934202D14FF480030EE04FF012
:102BFC0080630BE04FF4802308E04FF4804305E042
:102C0C004FF4806302E0402300E00423554A5360F4
:102C1C007B68DB6A002B00F094807B68DB6A786849
:102C2C0098478EE07B681B6C02229A40FB6813402D
:102C3C00002B56D0BB6803F00203002B51D07B68ED
:102C4C001B681B6803F02003002B0BD17B681B68EF
:102C5C001A687B681B6822F00A021A607B680122E2
:102C6C0083F821207B681B68384A934229D07B6803
:102C7C001B68374A934222D07B681B68354A9342C3
:102C8C001AD07B681B68344A934212D07B681B684D
:102C9C00324A93420AD07B681B68314A934202D174
:102CAC004FF400130EE04FF000730BE04FF40033C1
:102CBC0008E04FF4005305E04FF4007302E02023CA
:102CCC0000E00223274A53607B68002283F820200F
:102CDC007B689B6A002B34D07B689B6A786898472A
:102CEC002FE07B681B6C08229A40FB681340002B7A
:102CFC0028D0BB6803F00803002B23D07B681B682B
:102D0C001A687B681B6822F00E021A607B681A6CCA
:102D1C007B68DB6B012101FA02F25A607B680122AD
:102D2C009A637B68012283F821207B68002283F858
:102D3C0020207B681B6B002B04D07B681B6B786896
:102D4C00984700BF00BF1037BD4680BD0800024049
:102D5C001C00024030000240440002405800024077
:102D6C006C0002400000024080B485B000AFF860F7
:102D7C00B9607A603B60FB681A6CFB68DB6B012105
:102D8C0001FA02F25A60FB681B683A685A60FB68E9
:102D9C005B68102B08D1FB681B687A689A60FB682B
:102DAC001B68BA68DA6007E0FB681B68BA689A604F
:102DBC00FB681B687A68DA6000BF1437BD4680BCBC
:102DCC007047000080B48BB000AF7860396000238E
:102DDC007B6200233B6269E101227B6A02FA03F306
:102DEC00FB613B681B68FA691340BB61BA69FB69FC
:102DFC009A4240F058813B685B689A4A93425ED095
:102E0C00984A934275D8984A934258D0964A93421E
:102E1C006FD8964A934252D0944A934269D8944AB6
:102E2C0093424CD0924A934263D8924A934246D0F2
:102E3C00904A93425DD8122B2AD8122B59D801A252
:102E4C0052F823F0CB2E0008A52E0008B72E000850
:102E5C00F92E0008FF2E0008FF2E0008FF2E000898
:102E6C00FF2E0008FF2E0008FF2E0008FF2E000882
:102E7C00FF2E0008FF2E0008FF2E0008FF2E000872
:102E8C00FF2E0008FF2E0008AD2E0008C12E0008F2
:102E9C00794A934213D02CE03B68DB683B6229E013
:102EAC003B68DB6804333B6224E03B68DB68083337
:102EBC003B621FE03B68DB680C333B621AE03B680B
:102ECC009B68002B02D104233B6213E03B689B6898
:102EDC00012B05D108233B627B68FA691A6109E072
:102EEC0008233B627B68FA695A6103E000233B626A
:102EFC0000E000BFBB69FF2B01D87B6801E07B6859
:102F0C0004337B61BB69FF2B02D87B6A9B0002E018
:102F1C007B6A083B9B003B617B691A680F213B690C
:102F2C0001FA03F3DB431A40396A3B6901FA03F3F4
:102F3C001A437B691A603B685B6803F08053002B73
:102F4C0000F0B1804D4B9B694C4A43F001039361F7
:102F5C004A4B9B6903F00103BB60BB68484A7B6A20
:102F6C009B08023352F82330FB607B6A03F00303A7
:102F7C009B000F2202FA03F3DB43FA681340FB6059
:102F8C007B68404A934213D07B683F4A93420DD0F2
:102F9C007B683E4A934207D07B683D4A934201D1FD
:102FAC00032306E0042304E0022302E0012300E0F3
:102FBC0000237A6A02F0030292009340FA681343EA
:102FCC00FB602F497B6A9B080233FA6841F8232087
:102FDC003B685B6803F48033002B06D02D4B1A68DA
:102FEC002C49BB6913430B6006E02A4B1A68BB697A
:102FFC00DB43284913400B603B685B6803F40033E8
:10300C00002B06D0234B5A682249BB6913434B60F3
:10301C0006E0204B5A68BB69DB431E4913404B60EA
:10302C003B685B6803F48013002B06D0194B9A683D
:10303C001849BB6913438B6006E0164B9A68BB6951
:10304C00DB43144913408B603B685B6803F400134B
:10305C00002B21D00F4BDA680E49BB691343CB60B0
:10306C0021E000BF000032100000311000002210DF
:10307C00000021100000121000001110001002407E
:10308C000000014000080140000C0140001001400C
:10309C0000140140000401400B4BDA68BB69DB43B0
:1030AC0009491340CB607B6A01337B623B681A6829
:1030BC007B6A22FA03F3002B7FF48EAE00BF00BFB5
:1030CC002C37BD4680BC70470004014080B483B0EF
:1030DC0000AF78600B467B8013467B707B78002BAF
:1030EC0003D07A887B681A6103E07B881A047B68BA
:1030FC001A6100BF0C37BD4680BC704780B586B0E6
:10310C0000AF78607B68002B01D101236CE27B68F7
:10311C001B6803F00103002B00F08780924B5B6867
:10312C0003F00C03042B0CD08F4B5B6803F00C03E7
:10313C00082B12D18C4B5B6803F48033B3F5803FC2
:10314C000BD1894B1B6803F40033002B6CD07B68CC
:10315C005B68002B68D1012346E27B685B68B3F5A2
:10316C00803F06D1804B1B687F4A43F48033136049
:10317C002EE07B685B68002B0CD17B4B1B687A4A7A
:10318C0023F480331360784B1B68774A23F4802335
:10319C0013601DE07B685B68B3F5A02F0CD1724BFC
:1031AC001B68714A43F4802313606F4B1B686E4A93
:1031BC0043F4803313600BE06B4B1B686A4A23F4B7
:1031CC0080331360684B1B68674A23F480231360B9
:1031DC007B685B68002B13D0FEF7C8FE386108E0F3
:1031EC00FEF7C4FE02463B69D31A642B01D90323B4
:1031FC00FAE15D4B1B6803F40033002BF0D014E0B4
:10320C00FEF7B4FE386108E0FEF7B0FE02463B69FB
:10321C00D31A642B01D90323E6E1534B1B6803F447
:10322C000033002BF0D100E000BF7B681B6803F07B
:10323C000203002B63D04C4B5B6803F00C03002B98
:10324C000BD0494B5B6803F00C03082B1CD1464B8D
:10325C005B6803F48033002B16D1434B1B6803F0DF
:10326C000203002B05D07B681B69012B01D00123C5
:10327C00BAE13D4B1B6823F0F8027B685B69DB000D
:10328C00394913430B603AE07B681B69002B20D053
:10329C00364B01221A60FEF769FE386108E0FEF732
:1032AC0065FE02463B69D31A022B01D903239BE12D
:1032BC002D4B1B6803F00203002BF0D02A4B1B682C
:1032CC0023F0F8027B685B69DB00274913430B6032
:1032DC0015E0264B00221A60FEF748FE386108E024
:1032EC00FEF744FE02463B69D31A022B01D9032395
:1032FC007AE11D4B1B6803F00203002BF0D17B68B5
:10330C001B6803F00803002B3AD07B689B69002BE9
:10331C0019D0174B01221A60FEF728FE386108E01D
:10332C00FEF724FE02463B69D31A022B01D9032374
:10333C005AE10D4B5B6A03F00203002BF0D0012025
:10334C0000F0D8FA1CE00A4B00221A60FEF70EFEC1
:10335C0038610FE0FEF70AFE02463B69D31A022BD6
:10336C0008D9032340E100BF001002400000424294
:10337C00800442429E4B5B6A03F00203002BE9D1AE
:10338C007B681B6803F00403002B00F0A68000236D
:10339C00FB75974BDB6903F08053002B0DD1944BDD
:1033AC00DB69934A43F08053D361914BDB6903F0A3
:1033BC008053BB60BB680123FB758E4B1B6803F409
:1033CC008073002B18D18B4B1B688A4A43F4807393
:1033DC001360FEF7CBFD386108E0FEF7C7FD02462F
:1033EC003B69D31A642B01D90323FDE0814B1B6885
:1033FC0003F48073002BF0D07B68DB68012B06D1C3
:10340C007B4B1B6A7A4A43F0010313622DE07B6805
:10341C00DB68002B0CD1764B1B6A754A23F0010339
:10342C001362734B1B6A724A23F0040313621CE091
:10343C007B68DB68052B0CD16D4B1B6A6C4A43F027
:10344C00040313626A4B1B6A694A43F0010313625B
:10345C000BE0674B1B6A664A23F001031362644B53
:10346C001B6A634A23F0040313627B68DB68002B3E
:10347C0015D0FEF77BFD38610AE0FEF777FD0246BA
:10348C003B69D31A41F28832934201D90323ABE052
:10349C00574B1B6A03F00203002BEED014E0FEF72F
:1034AC0065FD38610AE0FEF761FD02463B69D31AFF
:1034BC0041F28832934201D9032395E04C4B1B6AAD
:1034CC0003F00203002BEED1FB7D012B05D1484B01
:1034DC00DB69474A23F08053D3617B68DB69002B9F
:1034EC0000F08180424B5B6803F00C03082B61D029
:1034FC007B68DB69022B46D13F4B00221A60FEF73A
:10350C0035FD386108E0FEF731FD02463B69D31A00
:10351C00022B01D9032367E0354B1B6803F00073C2
:10352C00002BF0D17B681B6AB3F5803F08D1304B80
:10353C005B6823F400327B689B682D4913434B6016
:10354C002B4B5B6823F474127B68196A7B685B6A8B
:10355C000B43274913434B60274B01221A60FEF79C
:10356C0005FD386108E0FEF701FD02463B69D31A00
:10357C00022B01D9032337E01D4B1B6803F00073AA
:10358C00002BF0D02FE01C4B00221A60FEF7EEFC53
:10359C00386108E0FEF7EAFC02463B69D31A022BBD
:1035AC0001D9032320E0124B1B6803F00073002B9E
:1035BC00F0D118E07B68DB69012B01D1012313E00A
:1035CC000B4B5B68FB60FB6803F480327B681B6A07
:1035DC009A4206D1FB6803F470127B685B6A9A42CC
:1035EC0001D0012300E0002318461837BD4680BDEA
:1035FC0000100240007000406000424280B584B070
:10360C0000AF786039607B68002B01D10123D0E0DA
:10361C006A4B1B6803F007033A689A4210D9674B50
:10362C001B6823F0070265493B6813430B60634B2F
:10363C001B6803F007033A689A4201D00123B8E0F3
:10364C007B681B6803F00203002B20D07B681B688F
:10365C0003F00403002B05D0594B5B68584A43F424
:10366C00E06353607B681B6803F00803002B05D0F4
:10367C00534B5B68524A43F460535360504B5B6846
:10368C0023F0F0027B689B684D4913434B607B68C9
:10369C001B6803F00103002B40D07B685B68012B97
:1036AC0007D1474B1B6803F40033002B15D10123C2
:1036BC007FE07B685B68022B07D1414B1B6803F0F2
:1036CC000073002B09D1012373E03D4B1B6803F001
:1036DC000203002B01D101236BE0394B5B6823F013
:1036EC0003027B685B68364913434B60FEF73EFC74
:1036FC00F8600AE0FEF73AFC0246FB68D31A41F286
:10370C008832934201D9032353E02D4B5B6803F0BD
:10371C000C027B685B689B009A42EBD1274B1B68C1
:10372C0003F007033A689A4210D2244B1B6823F02B
:10373C00070222493B6813430B60204B1B6803F0C4
:10374C0007033A689A4201D0012332E07B681B6878
:10375C0003F00403002B08D0194B5B6823F4E062E0
:10376C007B68DB68164913434B607B681B6803F06E
:10377C000803002B09D0124B5B6823F460527B6862
:10378C001B69DB000E4913434B6000F021F8024625
:10379C000B4B5B681B0903F00F030A49CB5C22FA45
:1037AC0003F3094A1360094B1B681846FEF79CFB90
:1037BC00002318461037BD4680BD00BF00200240D4
:1037CC00001002402C5E0008080000200C000020B5
:1037DC0090B48AB000AF2A4B3C1D0FCB84E80F008D
:1037EC0040F201233B800023FB610023BB610023DB
:1037FC007B6200237B6100233B62224B5B68FB6195
:10380C00FB6903F00C03042B02D0082B03D02DE032
:10381C001D4B3B622DE0FB699B0C03F00F0307F182
:10382C002802134413F8243C7B61FB6903F48033B6
:10383C00002B13D0134B5B685B0C03F0010307F1F7
:10384C002802134413F8283CBB617B690E4A02FB27
:10385C0003F2BB69B2FBF3F37B6204E07B690B4AB6
:10386C0002FB03F37B627B6A3B6202E0064B3B622A
:10387C0000BF3B6A18462837BD4690BC704700BF56
:10388C00B85400080010024000127A0000093D00F4
:10389C0080B400AF024B1B681846BD4680BC704715
:1038AC000800002080B500AFFFF7F2FF0246054B81
:1038BC005B681B0A03F007030349CB5C22FA03F392
:1038CC00184680BD001002403C5E000880B500AF79
:1038DC00FFF7DEFF0246054B5B68DB0A03F00703CC
:1038EC000349CB5C22FA03F3184680BD001002405A
:1038FC003C5E000880B485B000AF78600A4B1B6852
:10390C000A4AA2FB03235B0A7A6802FB03F3FB60FF
:10391C0000BFFB685A1EFA60002BF9D100BF00BF34
:10392C001437BD4680BC704708000020D34D621090
:10393C0080B586B000AF786000233B610023FB604C
:10394C007B681B6803F00103002B7DD00023FB7503
:10395C004F4BDB6903F08053002B0DD14C4BDB69D3
:10396C004B4A43F08053D361494BDB6903F08053DE
:10397C00BB60BB680123FB75464B1B6803F480736B
:10398C00002B18D1434B1B68424A43F480731360DD
:10399C00FEF7ECFA386108E0FEF7E8FA02463B69FC
:1039AC00D31A642B01D903236DE03A4B1B6803F443
:1039BC008073002BF0D0364B1B6A03F44073FB6012
:1039CC00FB68002B2ED07B685B6803F44073FA68AD
:1039DC009A4227D02E4B1B6A23F44073FB602E4B6C
:1039EC0001221A602C4B00221A60294AFB681362D0
:1039FC00FB6803F00103002B14D0FEF7B7FA386113
:103A0C000AE0FEF7B3FA02463B69D31A41F2883258
:103A1C00934201D9032336E01D4B1B6A03F00203CA
:103A2C00002BEED01A4B1B6A23F440727B685B6848
:103A3C00174913430B62FB7D012B05D1144BDB693A
:103A4C00134A23F08053D3617B681B6803F0020395
:103A5C00002B08D00E4B5B6823F440427B689B68BC
:103A6C000B4913434B607B681B6803F01003002B5E
:103A7C0008D0074B5B6823F480027B68DB68044941
:103A8C0013434B60002318461837BD4680BD00BF5A
:103A9C0000100240007000404004424280B582B0E9
:103AAC0000AF78607B68002B01D1012376E07B6846
:103ABC005B6A002B08D17B685B68B3F5827F09D009
:103ACC007B680022DA6105E07B6800221A617B6862
:103ADC0000225A617B6800229A627B6893F851300D
:103AEC00DBB2002B06D17B68002283F8502078686B
:103AFC00FEF718F87B68022283F851207B681B685C
:103B0C001A687B681B6822F040021A607B685B684D
:103B1C0003F482727B689B6803F404431A437B684A
:103B2C00DB6803F400631A437B681B6903F0020330
:103B3C001A437B685B6903F001031A437B689B693A
:103B4C0003F400731A437B68DB6903F038031A43F0
:103B5C007B681B6A03F0800342EA03017B689B6A63
:103B6C0003F400527B681B680A431A607B689B69EC
:103B7C001A0C7B681B6802F004025A607B681B6895
:103B8C00DA697B681B6822F40062DA617B680022C8
:103B9C005A657B68012283F85120002318460837A8
:103BAC00BD4680BD80B588B000AFF860B9603B60A1
:103BBC001346FB800023FB77FB6893F85030012BF6
:103BCC0001D1022326E1FB68012283F85020FEF785
:103BDC00CDF9B861FB88FB82FB6893F85130DBB2FE
:103BEC00012B02D00223FB770BE1BB68002B02D028
:103BFC00FB88002B02D10123FB7702E1FB68032237
:103C0C0083F85120FB6800225A65FB68BA681A6376
:103C1C00FB68FA889A86FB68FA88DA86FB680022C9
:103C2C009A63FB6800229A87FB680022DA87FB689C
:103C3C0000225A64FB6800221A64FB689B68B3F587
:103C4C00004F0FD1FB681B681A68FB681B6822F0D9
:103C5C0040021A60FB681B681A68FB681B6842F418
:103C6C0080421A60FB681B681B6803F04003402B02
:103C7C0007D0FB681B681A68FB681B6842F040029F
:103C8C001A60FB68DB68B3F5006F4BD1FB685B68AF
:103C9C00002B02D0FB8A012B3ED1FB681B6B1A88D0
:103CAC00FB681B68DA60FB681B6B9A1CFB681A6369
:103CBC00FB68DB8E9BB2013B9AB2FB68DA862BE089
:103CCC00FB681B689B6803F00203022B12D1FB6894
:103CDC001B6B1A88FB681B68DA60FB681B6B9A1CF1
:103CEC00FB681A63FB68DB8E9BB2013B9AB2FB68E4
:103CFC00DA8611E0FEF73AF90246BB69D31A3A6844
:103D0C009A4203D83B68B3F1FF3F02D13B68002BCA
:103D1C0002D10323FB7774E0FB68DB8E9BB2002B94
:103D2C00CED14CE0FB685B68002B02D0FB8A012BE8
:103D3C0040D1FB681A6BFB681B680C3312781A7045
:103D4C00FB681B6B5A1CFB681A63FB68DB8E9BB20F
:103D5C00013B9AB2FB68DA862CE0FB681B689B6817
:103D6C0003F00203022B13D1FB681A6BFB681B6870
:103D7C000C3312781A70FB681B6B5A1CFB681A63A5
:103D8C00FB68DB8E9BB2013B9AB2FB68DA8611E0D2
:103D9C00FEF7ECF80246BB69D31A3A689A4203D88C
:103DAC003B68B3F1FF3F02D13B68002B02D10323E8
:103DBC00FB7726E0FB68DB8E9BB2002BCDD1BA697A
:103DCC003968F86800F0FCF90346002B02D0FB6858
:103DDC0020225A65FB689B68002B0AD100233B61AB
:103DEC00FB681B68DB683B61FB681B689B683B617D
:103DFC003B69FB685B6D002B02D00123FB7700E075
:103E0C0000BFFB68012283F85120FB68002283F875
:103E1C005020FB7F18462037BD4680BD80B586B04C
:103E2C0000AFF860B9601346FB800023FB75FB689C
:103E3C0093F85030012B01D102239BE0FB68012247
:103E4C0083F85020FB6893F85130DBB2012B02D081
:103E5C000223FB7589E0BB68002B02D0FB88002B8A
:103E6C0002D10123FB7580E0FB68032283F851200B
:103E7C00FB6800225A65FB68BA681A63FB68FA880B
:103E8C009A86FB68FA88DA86FB6800229A63FB68DC
:103E9C0000225A64FB6800221A64FB6800229A878D
:103EAC00FB680022DA87FB689B68B3F5004F0FD1E3
:103EBC00FB681B681A68FB681B6822F040021A60DA
:103ECC00FB681B681A68FB681B6842F480421A6026
:103EDC00FB689B6C294ADA62FB689B6C284A9A62E5
:103EEC00FB689B6C274A1A63FB689B6C00225A6325
:103EFC00FB68986CFB681B6B1946FB681B680C33E2
:103F0C001A46FB68DB8E9BB2FEF7C8FD0346002BFE
:103F1C000CD0FB685B6D43F01002FB685A65012303
:103F2C00FB75FB68012283F851201EE0FB681B68BF
:103F3C001B6803F04003402B07D0FB681B681A6812
:103F4C00FB681B6842F040021A60FB681B685A68E9
:103F5C00FB681B6842F020025A60FB681B685A68B9
:103F6C00FB681B6842F002025A60FB68002283F86F
:103F7C005020FB7D18461837BD4680BD5F400008B9
:103F8C00B93F00087B40000880B483B000AF786074
:103F9C0000BF0C37BD4680BC704780B483B000AF07
:103FAC00786000BF0C37BD4680BC704780B586B0CA
:103FBC0000AF78607B685B6A7B61FDF7D7FF386187
:103FCC007B681B681B6803F02003202B3BD07B69AC
:103FDC001B685A687B691B6822F020025A607B6957
:103FEC001B685A687B691B6822F002025A603A69A6
:103FFC006421786900F0E4F80346002B05D07B6956
:10400C005B6D43F020027B695A657B699B68002BD2
:10401C000AD10023FB607B691B68DB68FB607B6952
:10402C001B689B68FB60FB687B690022DA867B69F6
:10403C00012283F851207B695B6D002B03D07869DA
:10404C00FFF7ABFF02E07869FCF7E6FC1837BD46DA
:10405C0080BD80B584B000AF78607B685B6AFB6024
:10406C00F868FFF791FF00BF1037BD4680BD80B5E3
:10407C0084B000AF78607B685B6AFB60FB681B6890
:10408C005A68FB681B6822F003025A60FB685B6D80
:10409C0043F01002FB685A65FB68012283F851203B
:1040AC00F868FFF77AFF00BF1037BD4680BD0000EF
:1040BC0080B588B000AFF860B9603B601346FB7107
:1040CC00FDF754FF0246BB6A9B1A3A681344FB6126
:1040DC00FDF74CFFB861394B1B685B011B0DFA698E
:1040EC0002FB03F37B6154E03B68B3F1FF3F50D01C
:1040FC00FDF73CFF0246BB69D31AFA699A4202D912
:10410C00FB69002B3DD1FB681B685A68FB681B6878
:10411C0022F0E0025A60FB685B68B3F5827F11D134
:10412C00FB689B68B3F5004F04D0FB689B68B3F544
:10413C00806F07D1FB681B681A68FB681B6822F04C
:10414C0040021A60FB689B6AB3F5005F0FD1FB68F5
:10415C001B681A68FB681B6822F400521A60FB6823
:10416C001B681A68FB681B6842F400521A60FB68F3
:10417C00012283F85120FB68002283F8502003238E
:10418C0017E07B69002B01D10023FB617B69013BAC
:10419C007B61FB681B689A68BB681340BA689A42DB
:1041AC000CBF01230023DBB21A46FB799A429BD148
:1041BC00002318462037BD4680BD00BF08000020F4
:1041CC0080B586B002AFF860B9607A607B68009306
:1041DC00BB6800228021F868FFF76AFF0346002BBA
:1041EC0007D0FB685B6D43F02002FB685A65032324
:1041FC0000E0002318461037BD4680BD80B582B064
:10420C0000AF78607B68002B01D1012341E07B6813
:10421C0093F83D30DBB2002B06D17B68002283F88B
:10422C003C207868FDF7E6FC7B68022283F83D2091
:10423C007B681A687B6804331946104600F070FAE4
:10424C007B68012283F846207B68012283F83E209C
:10425C007B68012283F83F207B68012283F8402091
:10426C007B68012283F841207B68012283F842207D
:10427C007B68012283F843207B68012283F8442069
:10428C007B68012283F845207B68012283F83D205E
:10429C00002318460837BD4680BD000080B485B0A9
:1042AC0000AF78607B6893F83D30DBB2012B01D016
:1042BC0001233AE07B68022283F83D207B681B686F
:1042CC00DA687B681B6842F00102DA607B681B6865
:1042DC00184A93420ED07B681B68B3F1804F09D00B
:1042EC007B681B68144A934204D07B681B68134A92
:1042FC00934211D17B681B689B6803F00703FB603A
:10430C00FB68062B10D07B681B681A687B681B68DF
:10431C0042F001021A6007E07B681B681A687B6830
:10432C001B6842F001021A60002318461437BD4680
:10433C0080BC7047002C0140000400400008004085
:10434C0080B582B000AF78607B681B681B6903F096
:10435C000203022B22D17B681B68DB6803F002038B
:10436C00022B1BD17B681B686FF002021A617B6801
:10437C0001221A777B681B689B6903F00303002BEF
:10438C0003D0786800F0B1F905E0786800F0A4F982
:10439C00786800F0B3F97B6800221A777B681B6899
:1043AC001B6903F00403042B22D17B681B68DB68B8
:1043BC0003F00403042B1BD17B681B686FF0040211
:1043CC001A617B6802221A777B681B689B6903F46D
:1043DC004073002B03D0786800F087F905E078680B
:1043EC0000F07AF9786800F089F97B6800221A7776
:1043FC007B681B681B6903F00803082B22D17B68C0
:10440C001B68DB6803F00803082B1BD17B681B6857
:10441C006FF008021A617B6804221A777B681B68AC
:10442C00DB6903F00303002B03D0786800F05DF91F
:10443C0005E0786800F050F9786800F05FF97B6867
:10444C0000221A777B681B681B6903F01003102B82
:10445C0022D17B681B68DB6803F01003102B1BD187
:10446C007B681B686FF010021A617B6808221A7750
:10447C007B681B68DB6903F44073002B03D07868FE
:10448C0000F033F905E0786800F026F9786800F060
:10449C0035F97B6800221A777B681B681B6903F06F
:1044AC000103012B0ED17B681B68DB6803F0010351
:1044BC00012B07D17B681B686FF001021A617868C9
:1044CC00FDF748FA7B681B681B6903F08003802B9F
:1044DC000ED17B681B68DB6803F08003802B07D14F
:1044EC007B681B686FF080021A61786800F077FABD
:1044FC007B681B681B6903F04003402B0ED17B6863
:10450C001B68DB6803F04003402B07D17B681B68FA
:10451C006FF040021A61786800F0F9F87B681B684C
:10452C001B6903F02003202B0ED17B681B68DB6812
:10453C0003F02003202B07D17B681B686FF020024F
:10454C001A61786800F042FA00BF0837BD4680BD9A
:10455C0080B584B000AF786039607B6893F83C30EC
:10456C00012B01D10223B3E07B68012283F83C20AC
:10457C007B68022283F83D207B681B689B68FB608C
:10458C00FB6823F07703FB60FB6823F47F43FB603D
:10459C007B681B68FA689A603B681B68B3F5005F20
:1045AC003ED0B3F5005F00F28780B3F5805F00F07A
:1045BC008580B3F5805F7FD8702B1AD0702B7BD899
:1045CC00602B50D0602B77D8502B3CD0502B73D80D
:1045DC00402B58D0402B6FD8302B64D0302B6BD85D
:1045EC00202B60D0202B67D8002B5CD0102B5AD0FE
:1045FC0062E07B6818683B6899683B685A683B685E
:10460C00DB6800F066F97B681B689B68FB60FB68E5
:10461C0043F07703FB607B681B68FA689A604EE096
:10462C007B6818683B6899683B685A683B68DB682C
:10463C0000F04FF97B681B689A687B681B6842F432
:10464C0080429A603BE07B6818683B6859683B681D
:10465C00DB681A4600F0C6F87B681B6850211846C8
:10466C0000F01DF92BE07B6818683B6859683B68C3
:10467C00DB681A4600F0E4F87B681B68602118467A
:10468C0000F00DF91BE07B6818683B6859683B68C3
:10469C00DB681A4600F0A6F87B681B6840211846B8
:1046AC0000F0FDF80BE07B681A683B681B68194644
:1046BC00104600F0F4F802E000BF00E000BF7B6899
:1046CC00012283F83D207B68002283F83C200023E4
:1046DC0018461037BD4680BD80B483B000AF7860FB
:1046EC0000BF0C37BD4680BC704780B483B000AFB0
:1046FC00786000BF0C37BD4680BC704780B483B077
:10470C0000AF786000BF0C37BD4680BC704780B4EA
:10471C0083B000AF786000BF0C37BD4680BC7047DB
:10472C0080B485B000AF786039607B681B68FB6033
:10473C007B68294A93420BD07B68B3F1804F07D03A
:10474C007B68264A934203D07B68254A934208D162
:10475C00FB6823F07003FB603B685B68FA681343EB
:10476C00FB607B681C4A93420BD07B68B3F1804F93
:10477C0007D07B68194A934203D07B68184A93424E
:10478C0008D1FB6823F44073FB603B68DB68FA6874
:10479C001343FB60FB6823F080023B685B691343A7
:1047AC00FB607B68FA681A603B689A687B68DA621F
:1047BC003B681A687B689A627B68074A934203D10C
:1047CC003B681A697B681A637B6801225A6100BFD7
:1047DC001437BD4680BC7047002C014000040040DB
:1047EC000008004080B487B000AFF860B9607A6010
:1047FC00FB681B6A7B61FB681B6A23F00102FB6888
:10480C001A62FB689B693B613B6923F0F0033B61D7
:10481C007B681B013A6913433B617B6923F00A03F4
:10482C007B617A69BB6813437B61FB683A699A6167
:10483C00FB687A691A6200BF1C37BD4680BC7047A2
:10484C0080B487B000AFF860B9607A60FB681B6A0F
:10485C0023F01002FB681A62FB689B697B61FB68A2
:10486C001B6A3B617B6923F470437B617B681B0390
:10487C007A6913437B613B6923F0A0033B61BB68FE
:10488C001B013A6913433B61FB687A699A61FB68C7
:10489C003A691A6200BF1C37BD4680BC704780B4B1
:1048AC0085B000AF786039607B689B68FB60FB6803
:1048BC0023F07003FB603A68FB68134343F0070373
:1048CC00FB607B68FA689A6000BF1437BD4680BCF9
:1048DC00704780B487B000AFF860B9607A603B6015
:1048EC00FB689B687B617B6923F47F437B613B683E
:1048FC001A027B681A43BB6813437A6913437B61C2
:10490C00FB687A699A6000BF1C37BD4680BC704753
:10491C0080B485B000AF786039607B6893F83C3028
:10492C00012B01D1022346E07B68012283F83C2055
:10493C007B68022283F83D207B681B685B68FB6008
:10494C007B681B689B68BB60FB6823F07003FB6093
:10495C003B681B68FA681343FB607B681B68FA684A
:10496C005A607B681B68164A93420ED07B681B68A2
:10497C00B3F1804F09D07B681B68124A934204D074
:10498C007B681B68104A93420CD1BB6823F08003F0
:10499C00BB603B685B68BA681343BB607B681B6891
:1049AC00BA689A607B68012283F83D207B680022FC
:1049BC0083F83C20002318461437BD4680BC704752
:1049CC00002C0140000400400008004080B483B07B
:1049DC0000AF786000BF0C37BD4680BC704780B418
:1049EC0083B000AF786000BF0C37BD4680BC704709
:1049FC0080B582B000AF78607B68002B01D10123B9
:104A0C003FE07B6893F83D30DBB2002B06D17B682E
:104A1C00002283F83C207868FDF748F97B68242253
:104A2C0083F83D207B681B68DA687B681B6822F47E
:104A3C000052DA60786800F029F87B681B681A6904
:104A4C007B681B6822F490421A617B681B685A6968
:104A5C007B681B6822F02A025A617B681B68DA6843
:104A6C007B681B6842F40052DA607B6800221A648F
:104A7C007B68202283F83D207B68202283F83E202F
:104A8C00002318460837BD4680BD000080B584B0B1
:104A9C0000AF78607B681B681B6923F440517B680E
:104AAC00DA687B681B680A431A617B689A687B68C2
:104ABC001B691A437B685B691343BB607B681B688B
:104ACC00DB6823F4B05323F00C037A681268B968DE
:104ADC000B43D3607B681B685B6923F440717B6874
:104AEC009A697B681B680A435A617B681B682C4A6D
:104AFC00934203D1FEF7EAFEF86002E0FEF7D2FE25
:104B0C00F860FA6813469B0013449A001A447B68B9
:104B1C005B689B00B2FBF3F3224AA2FB03235B0905
:104B2C001901FA6813469B0013449A001A447B68D7
:104B3C005B689B00B2FBF3F21A4BA3FB02035B090D
:104B4C00642000FB03F3D31A1B013233154AA2FB7A
:104B5C0003235B0903F0F0031944FA6813469B0026
:104B6C0013449A001A447B685B689B00B2FBF3F217
:104B7C000C4BA3FB02035B09642000FB03F3D31A69
:104B8C001B013233074AA2FB03235B0903F00F021C
:104B9C007B681B680A449A6000BF1037BD4680BD15
:104BAC00003801401F85EB51014B1868704700BF5E
:104BBC001400002070B500260C4D0D4C641BA41085
:104BCC00A64209D100F05CFC00260A4D0A4C641B7D
:104BDC00A410A64205D170BD55F8043B9847013688
:104BEC00EEE755F8043B98470136F2E7785E00088B
:104BFC00785E0008785E00087C5E0008034602447C
:104C0C00934200D1704703F8011BF9E70EB46FF023
:104C1C00004100B59CB01DAB029006900791049129
:104C2C000848094953F8042B0591006802A901931F
:104C3C0000F068F80022029B1A701CB05DF804EBBF
:104C4C0003B07047140000200802FFFF2DE9F04765
:104C5C008E6882469E420C4690461F4638D88A89FA
:104C6C0012F4906F32D0256809690133A5EB010964
:104C7C0065694B4405EB450505EBD5756D109D42FB
:104C8C0038BF1D46530531D5294600F053FB064667
:104C9C0050B90C234FF0FF30CAF80030A38943F011
:104CAC004003A381BDE8F0874A46216900F0CEFAA3
:104CBC00A38923F4906343F08003A38126614E44BF
:104CCC0026603E466561A5EB0905A560BE4200D98C
:104CDC003E4632464146206800F0C6FAA368226878
:104CEC009B1B32440020A3602260DBE72A4600F0C5
:104CFC007BFB06460028E1D15046216900F0CEFA34
:104D0C00C7E700002DE9F04F98468B8907461B0634
:104D1C000D4614469DB00ED50B6963B9402100F0C9
:104D2C0009FB2860286120B90C233B604FF0FF3051
:104D3C00D1E040236B610023099320238DF82930A7
:104D4C0030234FF00109CDF80C80DFF8A4818DF8E9
:104D5C002A3023469A4613F8012B0AB1252AF9D199
:104D6C00BAEB040B0BD05B46224629463846FFF7BC
:104D7C006DFF013000F0AA80099A5A4409929AF802
:104D8C000030002B00F0A28000234FF0FF32CDE961
:104D9C0005230AF1010A049307938DF853301A93F3
:104DAC005446052214F8011B514800F041FA049AAC
:104DBC00D8B9D00644BF20238DF85330110744BF17
:104DCC002B238DF853309AF800302A2B15D05446EB
:104DDC0000204FF00A0C079A214611F8013B303B9A
:104DEC00092B4ED9B0B1079214E0A0EB080309FAD5
:104DFC0003F31343A2460493D2E7039B191D1B68CC
:104E0C000391002BBBBF5B4242F002020793079356
:104E1C00B8BF049223782E2B0CD163782A2B35D172
:104E2C00039B02341A1D1B680392002BB8BF4FF072
:104E3C00FF330593DFF8C8A003225046217800F019
:104E4C00F7F940B14023A0EB0A0003FA00F0049BF1
:104E5C0001340343049314F8011B062225488DF8F2
:104E6C00281000F0E5F9002838D0234B1BBB039B1E
:104E7C00073323F0070308330393099B3344099347
:104E8C0067E70C4601200CFB0232A5E700234FF02C
:104E9C000A0C194601340593204610F8012B303AC0
:104EAC00092A03D9002BC5D00591C3E70446012379
:104EBC000CFB0121F0E703AB00932A4638460F4B5D
:104ECC0004A9AFF30080421C0646D6D1AB895B0621
:104EDC003FF52CAF09981DB0BDE8F08F03AB0093E4
:104EEC002A463846054B04A900F07CF8EBE700BFD6
:104EFC00445E00084E5E000800000000594C00089B
:104F0C004A5E00082DE9F047164699468A680B69F7
:104F1C0007469342B8BF1346336091F843200C46C2
:104F2C00DDF820800AB1013333602368990642BF53
:104F3C00336802333360256815F0060506D104F199
:104F4C00190AE36832689B1AAB4228DC94F84320B8
:104F5C00131E226818BF012392062DD449463846E9
:104F6C0004F14302C047013020D02368E56803F008
:104F7C000603042B18BF002532684FF00006A36807
:104F8C0008BFAD1A226908BF25EAE5759342C4BF74
:104F9C009B1AED181A34B5421AD1002008E00123EF
:104FAC00524649463846C047013003D14FF0FF30D6
:104FBC00BDE8F0870135C4E73020E11881F84300E3
:104FCC005A1C94F845102244023382F84310C5E76A
:104FDC000123224649463846C0470130E6D0013607
:104FEC00D9E700002DE9FF470C46277E9146782F24
:104FFC0080469A460C9904F1430207D8622F0AD8CE
:10500C00002F00F0D980582F00F0A48004F1420644
:10501C0084F842703AE0A7F16303152BF6D801A08F
:10502C0050F823F0895000089D50000819500008D2
:10503C001950000819500008195000089D5000081C
:10504C001950000819500008195000081950000890
:10505C00AB510008CD5000088D51000819500008C4
:10506C0019500008CD51000819500008CD50000807
:10507C001950000819500008955100080B6804F1EC
:10508C0042061A1D1B680A6084F842300123A4E012
:10509C00256808682E0600F104030AD505680B6024
:1050AC00002D03DA2D236D4284F843300A235E4829
:1050BC0019E015F0400F05680B6018BF2DB2EFE733
:1050CC000B682568181D0860280601D51D6802E0CC
:1050DC006906FBD51D886F2F0CBF08230A23524885
:1050EC00002184F843106668002EA8BF2168A660D2
:1050FC00A4BF21F0040121600DB9002E4DD016463D
:10510C00B5FBF3F103FB1157C75D06F8017D2F4684
:10511C00BB420D46F4D9082B0BD12368DF0708D509
:10512C00236961689942DEBF302306F8013C06F121
:10513C00FF36921B22614B4621464046CDF800A01B
:10514C0003AAFFF7DFFE01304CD14FF0FF3004B063
:10515C00BDE8F087344884F845700E68236856F82B
:10516C00045B1F060E6014D5D90744BF43F020031F
:10517C0023601DB9236823F0200323601023AFE7BD
:10518C00236843F0200323607823284884F84530B3
:10519C00E3E75E0648BFADB2E6E71646BBE70B6831
:1051AC0026681D1D60690D6035061B6801D51860E9
:1051BC0002E07106FBD51880002316462361BAE77E
:1051CC000B681A1D0A601E6800213046626800F0E8
:1051DC002FF808B1801B606063682361002384F89A
:1051EC004330A8E73246494640462369D047013050
:1051FC00ABD023689B0713D4E068039B9842B8BFDD
:10520C001846A4E70123324649464046D0470130B0
:10521C009BD00135E36803995B1AAB42F2DCEBE7F8
:10522C00002504F11906F5E7555E0008665E0008D6
:10523C00034610B5C9B202449342184601D100206E
:10524C0003E0047801338C42F6D110BD0A4491423C
:10525C0000F1FF3300D1704710B511F8014B9142AA
:10526C0003F8014FF9D110BD884210B501EB0204CF
:10527C0002D98442234607D8431EA14208D011F814
:10528C00012B03F8012FF8E7014602448A4200D1B2
:10529C0010BD13F8014D02F8014DF7E738B505467E
:1052AC00002943D051F8043C0C1F002BB8BFE41864
:1052BC0000F0D0F81E4A1368104633B963601460CE
:1052CC002846BDE8384000F0CBB8A3420AD9216883
:1052DC006218934201BF1A685B68521822606360BF
:1052EC000460EDE71A465B680BB1A342FAD911686A
:1052FC005018A0420BD12068014450188342116011
:10530C00DED118685B68014411605360D8E702D99C
:10531C000C232B60D4E7206821188B4201BF19683D
:10532C005B680918216063605460C9E738BD00BF31
:10533C0098000020F8B5CD1C25F0030508350C2D80
:10534C0038BF0C25002D064601DBA94203D90C23DE
:10535C0033600020F8BD00F07DF821490A6814463E
:10536C009CB9204F3B6823B92146304600F062F8C7
:10537C0038602946304600F05DF8431C23D10C23DD
:10538C003046336000F06CF8E3E723685B1B17D4FE
:10539C000B2B03D923601C44256004E06368A242F4
:1053AC000CBF0B605360304600F05AF804F10B0050
:1053BC00231D20F00700C21ACCD01B1AA350C9E73A
:1053CC0022466468CCE7C41C24F00304A042E3D05A
:1053DC00211A304600F02EF80130DDD1CFE700BFA6
:1053EC00980000209C000020F8B5074614460E4695
:1053FC0021B91146BDE8F840FFF79CBF22B9FFF771
:10540C004DFF25462846F8BD00F030F8A0420FD2DB
:10541C0021463846FFF78EFF05460028F2D031466C
:10542C002246FFF713FF31463846FFF737FFE9E70F
:10543C003546E7E738B50023054D044608462B6092
:10544C00FCF7DAFC431C02D12B6803B1236038BD96
:10545C00E0020020014800F011B800BFE802002073
:10546C00014800F00CB800BFE802002051F8043CE1
:10547C00181F002BBCBF0B58C018704770477047E3
:10548C00F8B500BFF8BC08BC9E467047F8B500BF25
:08549C00F8BC08BC9E467047F5
:1054A40042504D2076616C75653A20004E2F4100C4
:1054B4002575000002030405060708090A0B0C0DF4
:1054C4000E0F1010190C100207000000000000005D
:1054D40000000000000000000000000000000000C8
:1054E40000020000FE0B00000000000000000000AD
:1054F400000000000000000000000400001E000086
:10550400001E000000000000000000000000000079
:10551400000000081001100FF0011E01100FF0012F
:105524001E0110010000000000000000061C0622FD
:10553400084208FF1F42088C07000000000000001A
:1055440000000000000B00003C00420042083C0642
:10555400800170008C0742084008800700000900A1
:10556400008007DC086208A2081C07000780090005
:10557400080000000000000200001E0000000000FF
:105584000000000000000000000000000000000017
:10559400040000F00F0C380240000000000000007E
:1055A4000000000000000000000302400C38F00F6F
:1055B40000000000000000000000000000000000E7
:1055C400000005040034000E003400040000000054
:1055D4000000000000000000000000074000400040
:1055E4004000F803400040004000000000000000BC
:1055F400000000000200200018000000000000006D
:105604000000000000000000000000000004000191
:105614000001000100010000000000000000000083
:10562400000000000000020000000800000000006C
:105634000000000000000000000000000000000462
:10564400000C800370000E00000000000000000049
:10565400000000000000000006F803040402080231
:10566400080404F80300000000000000000000002B
:105674000004000010000800FE0F000000000000FD
:1056840000000000000000000000060C0C020A02EA
:1056940009820844083808000000000000000000E7
:1056A400000000060C06020842084208A40418037D
:1056B400000000000000000000000000068001401F
:1056C4000130010C01FE0F00010000000000000089
:1056D40000000000000670064E082208220842045A
:1056E400820300000000000000000000000006F833
:1056F4000344042208220842048C03000000000032
:1057040000000000000000060200020EC201320088
:105714000A00060000000000000000000000000075
:10572400061803A40442084208A404180300000055
:10573400000000000000000000063806440882084B
:1057440082084404F8030000000000000000000088
:10575400000002000010080000000000000000002B
:1057640000000000000000000000000200201018EB
:105774000000000000000000000000000000000025
:10578400000000000700004000A000A0001001106D
:1057940001080200000000000000000000070000F3
:1057A400200120012001200120012001000000002F
:1057B400000000000000070000080210011001A012
:1057C40000A00040000000000000000000000006EF
:1057D4000C000200020B820042003C0000000000AA
:1057E40000000000000000000C0000E0071008E8C2
:1057F400171428124812442247F24804280828F0B3
:10580400170900080007E0009C0082009C00E000EB
:1058140000070008000000000000080000FE0F421E
:10582400084208420842084208BC07000000000081
:10583400000000080000F80304040208020802083B
:10584400040418030000000000000000080000FE2B
:105854000F02080208020802080404F8030000000A
:105864000000000000080000FE0F42084208420841
:10587400420842084208000000000000000007003F
:1058840000FE0F42004200420042000200000000FD
:1058940000000000000000090000F80304040208EE
:1058A40002088208820884089807000000000000AB
:1058B400080000FE0F40004000400040004000FE91
:1058C4000F0000000000000000020000FE0F0000B6
:1058D40000000000000000000000000000000000C4
:1058E40000000600000007000800080008FE07008A
:1058F4000000000000000000000000080000FE0F8F
:1059040040002000D0000801040602080000000046
:1059140000000000070000FE0F0008000800080057
:10592400080008000000000000000000000A000059
:10593400FE0F060078008003000C80037800060048
:10594400FE0F00000000080000FE0F0C003000C035
:105954000000010006FE0F00000000000000000926
:105964000000F80304040208020802080208040400
:10597400F803000000000000080000FE0F4200428F
:10598400004200420042003C000000000000000011
:1059940000090000F803040402080208020A0204D1
:1059A4000406F81B000000000000090000FE0F427E
:1059B4000042004200C200C2013C06000800000090
:1059C40000000008000018032404420842084208AA
:1059D4008404180300000000000000000702000215
:1059E400000200FE0F02000200020000000000009E
:1059F4000000000000080000FE0300040008000886
:105A040000080004FE03000000000000000009027A
:105A1400001C00E000000700080007E0001C000272
:105A2400000000000000000B1E00E003000CC00397
:105A34003C0002003C00C003000CE0031E00000018
:105A440008020804041803E000A000180304040278
:105A54000800000000000000000902000400180013
:105A64006000800F600018000400020000000000C5
:105A7400000007020C020A8209420832080A0806DA
:105A84000800000000000000000000030000FE7F8A
:105A940002400000000000000000000000000000C0
:105AA4000000000004060078008003000C000000E1
:105AB40000000000000000000000000000030000DF
:105AC4000240FE7F00000000000000000000000013
